:020000040000FA
:10000000000400206D020000710200007302000075
:100010007502000077020000790200000000000075
:100020000000000000000000000000007B02000053
:100030007D020000000000007F020000810200003D
:10004000830200008302000083020000830200009C
:10005000830200008302000083020000830200008C
:10006000830200008302000083020000830200007C
:10007000830200008302000083020000830200006C
:10008000830200008302000083020000830200005C
:10009000830200008302000083020000830200004C
:1000A000830200008302000083020000830200003C
:1000B000830200008302000083020000830200002C
:1000C000830200008302000083020000830200001C
:1000D000830200008302000083020000830200000C
:1000E00083020000830200008302000083020000FC
:1000F00083020000830200008302000083020000EC
:1001000083020000830200008302000083020000DB
:1001100083020000830200008302000083020000CB
:1001200083020000830200008302000083020000BB
:1001300083020000830200008302000083020000AB
:1001400000000000000000000000000000000000AF
:10015000830200008302000083020000830200008B
:10016000000000000000000000000000000000008F
:10017000000000000000000000000000000000007F
:10018000000000000000000000000000000000006F
:10019000000000000000000000000000000000005F
:1001A000000000000000000000000000000000004F
:1001B000830200008302000083020000830200002B
:1001C000830200008302000083020000830200001B
:1001D000830200008302000083020000830200000B
:1001E00083020000830200008302000083020000FB
:1001F00083020000830200008302000083020000EB
:10020000830200008302000083020000000000005F
:1002100083020000830200008302000083020000CA
:1002200083020000830200008302000083020000BA
:1002300083020000830200008302000083020000AA
:10024000830200008302000083020000830200009A
:10025000830200008302000083020000830200008A
:1002600083020000830200008302000000F013B844
:10027000FEE7FEE7FEE7FEE7FEE7FEE7FEE7FEE756
:10028000FEE7FEE748656C6C6F0466726F6D044EA6
:100290006F6B6961210400BF00F02CF94FF008007A
:1002A0004FF0010100F0F8F9184D00F03DFA4FF061
:1002B00008004FF0020100F0EFF9154D00F034FA9C
:1002C0004FF008004FF0030100F0E6F9114D00F087
:1002D0002BFA48F25555C0F2401500F011F84FF0D6
:1002E00000004FF0000100F0D7F94FF0560500F084
:1002F000F6F948F25555C0F2400500F001F8F4E770
:1003000001B428460138FDD101BC704784020000C9
:100310008A0200008F020000000000000000005F61
:1003200000000007000700147F147F14242A7F2A8E
:100330001223130864623649552250000503000059
:10034000001C2241000041221C0014083E08140831
:10035000083E08080050300000080808080800603F
:1003600060000020100804023E5149453E00427FD3
:10037000400042615149462141454B311814127FDA
:100380001027454545393C4A494930017109050363
:100390003649494936064949291E003636000000CB
:1003A000563600000814224100141414141400419D
:1003B0002214080201510906324979413E7E111189
:1003C000117E7F494949363E414141227F414122C8
:1003D0001C7F494949417F090909013E4149497A40
:1003E0007F0808087F00417F41002040413F017F96
:1003F000081422417F404040407F020C027F7F046E
:1004000008107F3E4141413E7F090909063E4151A6
:10041000215E7F09192946464949493101017F0179
:10042000013F4040403F1F2040201F3F4038403F99
:1004300063140814630708700807615149454300B5
:100440007F41410002040810200041417F00040266
:100450000102044040404040000102040020545486
:1004600054787F484444383844444420384444480D
:100470007F3854545418087E0901020C5252523EDF
:100480007F0804047800447D40002040443D007F04
:100490001028440000417F40007C041804787C0848
:1004A00004047838444444387C14141408081414A0
:1004B000187C7C080404084854545420043F4440E9
:1004C000203C4040207C1C2040201C3C4030403CD4
:1004D00044281028440C5050503C4464544C440070
:1004E0000836410000007F00000041360800100877
:1004F0000810080000B5B949086840F0010008601C
:1005000000BF00BF00BFB6494FF0EC000860B5491E
:100510004FF03C000860B4494FF0FC000860B3495C
:100520004FF40850C0F222000860B1494FF00000BB
:100530000860B049086840F0010008604FF00F0003
:10054000401EFDD1AC494FF000000860AB494FF0B0
:1005500005000860AA49086840F480700860A9494D
:100560004FF004000860A649086820F0F00040F051
:1005700007000860A049086840F002000860A2492E
:100580004FF0000008604FF00A00401EFDD19E4968
:100590004FF0800008609C49086820F04000086027
:1005A0004FF0210500F01EF84FF0B80500F01AF8E2
:1005B0004FF0040500F016F84FF0140500F012F8A3
:1005C0004FF0200500F00EF84FF00C0500F00AF88F
:1005D00000F0D8F88D49086810F01000FAD15DF8E5
:1005E00004EB704703B48949086810F00200FAD0A0
:1005F00087490D7003BC70471FB520B48249086855
:1006000020F0400008604FF02005FFF7EBFF4FF0AF
:100610008005FFF7E7FF7D49086810F01000FAD168
:100620007949086840F04000086020BC4FF0540051
:10063000294611F8015BFFF7D5FF0138F9D1BDE874
:100640001F4070471FB520B46F49086820F0400074
:1006500008604FF02005FFF7C5FF4FF04005FFF79A
:10066000C1FF4FF08005FFF7BDFF6849086810F033
:100670001000FAD16449086840F04000086020BCCE
:100680004FF4FC70294611F8015BFFF7ABFF01380E
:10069000F9D1BDE81F4070473CB503B45A4908681A
:1006A00020F0400008604FF02005FFF79BFF03BCDF
:1006B0000D4645F04005FFF795FF054645F08005DE
:1006C000FFF790FF5149086810F01000FAD14E4929
:1006D000086840F040000860BDE83C4070471FB526
:1006E0004949086840F0400008604A49A5F12002E5
:1006F0004FF0050302FB03F2114420B44FF0050054
:100700004FF0000211F8015BFFF76CFF401EF9D1BA
:100710001546FFF767FF3D49086810F01000FAD151
:1007200020BCBDE81F4070473FB5294611F8015B6A
:10073000042D02D0FFF7D3FFF8E7BDE83F40704734
:1007400003B520B43049086820F0400008604FF03D
:100750002005FFF747FF20BCFFF744FFBDE803403B
:10076000704703B520B42849086820F040000860AD
:100770004FF02105FFF736FF20BCFFF733FFBDE840
:10078000034070473FB52049086820F040000860EA
:100790004FF02005FFF726FF4FF04005FFF722FF3F
:1007A0004FF08005FFF71EFF1849086810F0100091
:1007B000FAD11549086840F0400008604FF4FC7019
:1007C0004FF00005FFF70EFF0138FBD10F49086815
:1007D00010F01000FAD1BDE83F40704708E60F4026
:1007E00000440040204400401C4500402C4500408F
:1007F000284500401CE60F4004800040C88F0040A0
:100800000080004010800040FC4300400C8000400D
:080810000880004018030000FD
:040000050000026D88
:00000001FF
